:100000002CC066C043C042C041C040C03FC03EC0DB
:100010003DC03CC03BC03AC039C038C037C036C014
:1000200035C034C033C000CDD914F13C28E5A16CF3
:1000300078B5509D894412010101FF0000080912A2
:100040007065040100000001090212000101008036
:10005000320904000000FF00000011241FBECFED94
:10006000CDBF10E0A0E6B0E0E0EEF7E002C0059002
:100070000D92A236B107D9F710E0A2E6B0E001C0B8
:100080001D92AE39B107E1F7A1D3A8C3B9CFDC0106
:100090009FEF8FEF660FB9F046E2F0E0229560FF28
:1000A0002D91E82FE227EF70929582958F70392F6E
:1000B000307F832B9F70E40F359193273170932706
:1000C00083276A9559F7809590958D939D93089510
:1000D0000F931F932F93DF93CF930FB70F938299B3
:1000E000FECF82990BC0829909C0829907C082997C
:1000F00005C0829903C000E40ABFA8C0C091860071
:10010000DD27C957DF4F0BE01CE024E0829BE9CFDD
:100110003F934F936F9360B330E803C060B3432BBA
:10012000499344276C702627215020B32C70A9F1E5
:1001300037953C3FA0F56227615060B36C703795EE
:100140003C3F98F526272150379520B32C703C3F33
:1001500090F56227615037953C3F60B36C70A0F515
:100160002627215037953C3FC8F520B32C706227D5
:10017000615037953C3FB0F50A9560B37AF06C70EA
:100180002627215037953C3F88F520B32C706227F5
:10019000615037953C3F10F22DC031C048C06127F7
:1001A00020B32C703F774160C6CF3F77426060B389
:1001B0006C702127C7CF3F774460612720B32C7034
:1001C000622761503795C8CF3F774860212731605B
:1001D00060B36C70262721503795C6CF3F774061BA
:1001E0006127C1CF3F7740622127C4CF3F7740646A
:1001F0006127C9CF3F774068212700C08FCF30E407
:100200003ABF0B500195033090F0C01B2881233C6E
:1002100091F12B3481F119811F7740919D001417C2
:1002200031F42936D9F02D3249F0213E39F04427F6
:10023000409362006F914F913F9108C020936200FC
:100240006F914F913F910AB706FD49CF0F910FBFB4
:10025000CF91DF912F911F910F9118950091780008
:100260000023F1F0409185004423D1F440937800BD
:10027000C9E7D0E018C0209162002223C1F240916A
:100280008500442369F40093850020938400009145
:1002900086004BE0401B40938600C0E6D0E002C0E1
:1002A000C1E6D0E001E022B3237F286011B31C60D7
:1002B00022BB11BB1CE030E830FF212722BB379561
:1002C00047954C3FC0F530FF2127379522BB479516
:1002D0004C3FA8F530FF21273795000022BB4795FA
:1002E0004C3F78F530FF21273795000022BB47951A
:1002F0004C3F48F530FF2127699122BB3795479540
:100300004C3F18F530FF2127379522BB47954C3FCE
:1003100000F530FF21273795479522BB4C3FD8F495
:1003200030FF21273795362F479522BB4C3FA8F445
:100330000A9512F614C02127442722BBC2CF2127D9
:10034000C5CF2127CBCF2127D1CF2127442722BBBF
:10035000D7CF2127DACF2127DFCF2127E5CF237F72
:1003600022BB6F914F913F9100E40ABFDF91CF9183
:1003700011B3022F286022BB137FDFBFDF912F91C3
:10038000000011BB02BB1F910F91189585B78360C8
:1003900085BF8BB780648BBF789408951F93CF93EC
:1003A000DF9360918500662309F461C08091860027
:1003B000CCE0D0E0C81BD109C957DF4F81E0809362
:1003C0006300809184008D3209F043C01E818F81CB
:1003D00081111FEF8881807661F58981882321F45E
:1003E0001882198292E02DC0853021F48A81809391
:1003F00067009FC0863091F482E0809363008B8118
:10040000813021F492E1C6E3D0E01BC0823009F0D4
:1004100090C0959A92E1C8E4D0E013C0883019F4F6
:1004200081E0888304C08A3009F083C0188291E09B
:1004300008C0CE01DBD0982F8F3F19F483E0809362
:100440006300191708F0192FD0936600C093650058
:1004500005C0635011F0CE015FD110E0109364002D
:1004600083EC80937900109278001092850080913F
:100470007800882309F053C020916300222309F4F7
:100480004AC08091790098E889278093790010917B
:100490006400193010F018E002C0112379F1233004
:1004A00031F48AE790E0612F22D1182F22C03091D9
:1004B000650040916600213061F4832F942FFC0188
:1004C000AAE7B0E081918D938E2F831B8117D0F323
:1004D0000CC0832F942FFC01AAE7B0E084913196E1
:1004E0008D938E2F831B8117C8F3F0936600E093E2
:1004F000650080916400811B809364008AE790E02E
:10050000612FC5DD1D5F109378001350183038F44B
:100510001092630004C08091670080939D008AE080
:1005200002C0815019F0839BFCCF05C01092670078
:1005300002C090E088CFDF91CF911F9108951F9363
:10054000FC01DB017091680023C0108160E890E03D
:1005500020E030E0862F812309F0C59A072E00C0E5
:1005600000000A94E1F7C79A072E00C000000A9421
:10057000E1F7990FB6999F5FC598C79866952F5F69
:100580003F4F2830310531F74150504031969D930F
:1005900041155105D1F61F91089520916B003091BE
:1005A0006C002F5F3F4F30936C0020936B00215005
:1005B000304080916F0087FF02C0220F331F80936D
:1005C000700020FF03C0886080937000832F8695A1
:1005D00080937100369527952093720080E790E014
:1005E00064E770E044E050E0AADF0895FC01318147
:1005F000332311F488E00895BC016E5F7F4F428180
:10060000242F277081E090E0982F01C0990F2A9540
:10061000EAF7343019F488B3982B20C0333021F432
:1006200088B3909598231AC0323011F448BB5BC050
:10063000313019F486B380832CC03D3011F447BBB0
:1006400015C0353069F4409368008481882311F027
:1006500091E101C091E0949881EB87BB98BB43C0C6
:10066000363021F417BA18BA949A3DC088B388235B
:10067000E1F1373039F4CB01BF0144E050E05FDFF6
:1006800084E008953E3039F4CB01BF0141E050E0F1
:1006900056DF81E00895383031F44093690083815A
:1006A00080936A0020C08481958190936C00809330
:1006B0006B00393011F480E203C03B3029F480EA4A
:1006C00080936F008FEF08958281938190936E00E5
:1006D00080936D003A3011F480E403C03C3029F47B
:1006E00080EC80936F0080E0089580E008950F9380
:1006F0001F93CF93DF93062FEC0110E005C04DDF71
:100700008091770089931F5F1017C8F3802FDF91C6
:10071000CF911F910F9108957F928F929F92AF92E8
:10072000BF92CF92DF92EF92FF920F931F93CF93DE
:10073000DF93862EA0906D00B0906E0090906900BF
:10074000C0906A0020916800E22EFF2435E0EE0C94
:10075000FF1C3A95E1F78C01DD2420E6722E26C0BD
:10076000F80180818093730018DF809170008725E5
:1007700080937000C0E0D0E013C080E790E064E7B1
:1007800070E044E050E0DBDE9091770080917300F0
:10079000981721F4991511F09C1529F4CE0DDF1D41
:1007A000CA15DB0550F3D3940F5F1F4FD814C0F266
:1007B000DF91CF911F910F91FF90EF90DF90CF903D
:1007C000BF90AF909F908F907F900895949A80E70C
:1007D00081BBDCDD80E582BBE1DDFECFF894FFCF9D
:0207E000D25AEB
:00000001FF
