:1000000041C074C04DC04CC04BC04AC049C048C07C
:1000100047C046C045C044C043C042C041C040C0C4
:100020003FC03EC03DC000CDD914F13C28E5A16CD5
:1000300078B5509D894409021200010100803209FF
:1000400004000000FF00000012010101FF00000891
:100050000912706507010002000104030904260368
:100060004900530045002000410056005200200086
:10007000500072006F006700720061006D006D003B
:100080006500720011241FBECFEDCDBF20E0A0E6B9
:10009000B0E001C01D92AE39B207E1F795D399C324
:1000A000AFCFDC019FEF8FEF46E2F0E018C02D915B
:1000B0008227E82FEF70E40F3591E82FE295892F22
:1000C000932F3170E327EF709295392F9F70307E18
:1000D0008327E40F359193273170932783276A95FF
:1000E00032F7809590958D939D9308950F931F936C
:1000F0002F93DF93CF930FB70F938299FECF8299FF
:100100000BC0829909C0829907C0829905C0829963
:1001100003C000E40ABFACC0C0918600DD27C95708
:10012000DF4F0BE01CE024E0829BE9CF3F934F932D
:100130006F9360B330E803C060B3432B4993442707
:100140006C702627215020B32C70A9F137953C3FC5
:10015000A0F56227615060B36C7037953C3F98F50D
:1001600026272150379520B32C703C3F90F562270D
:10017000615037953C3F60B36C70A0F52627215045
:1001800037953C3FC8F520B32C70622761503795F6
:100190003C3FB0F50A9560B37AF06C702627215089
:1001A00037953C3F88F520B32C7062276150379516
:1001B0003C3F10F22DC031C052C0612720B32C70DB
:1001C0003F774160C6CF3F77426060B36C702127B4
:1001D000C7CF3F774460612720B32C7062276150FE
:1001E0003795C8CF3F7748602127316060B36C7086
:1001F000262721503795C6CF3F7740616127C1CF71
:100200003F7740622127C4CF3F7740646127C9CF41
:100210003F774068212700C08FCF30E43ABF0B50B2
:100220000195C01BD040288121FD2DC019811F7769
:1002300040919D00141799F4293691F400917600AD
:100240000023F1F0409185004423D1F440937600DF
:100250004091820040939D00C7E7D0E02BC0222749
:10026000209360006F914F913F910AB706FD45CFF3
:100270000F910FBFCF91DF912F911F910F91189583
:10028000C3E8D0E016C0217059F32091600022230A
:1002900039F340918500442399F70093850020931A
:1002A0008400009186004BE0401B40938600C5E728
:1002B000D0E001E022B3237F286011B31C6022BB91
:1002C00011BB1CE030E830FF212722BB3795479552
:1002D0004C3FC0F530FF2127379522BB47954C3F57
:1002E000A8F530FF21273795000022BB47954C3FEA
:1002F00078F530FF21273795000022BB47954C3F0A
:1003000048F530FF2127699122BB379547954C3F2F
:1003100018F530FF2127379522BB47954C3F00F554
:1003200030FF21273795479522BB4C3FD8F430FF4B
:1003300021273795362F479522BB4C3FA8F40A95C5
:1003400012F614C02127442722BBC2CF2127C5CFD4
:100350002127CBCF2127D1CF2127442722BBD7CF9D
:100360002127DACF2127DFCF2127E5CF237F22BB2B
:100370006F914F913F9100E40ABFDF91CF9111B38C
:10038000022F286022BB137FDFBFDF912F91000077
:1003900011BB02BB1F910F91189585B7836085BF74
:1003A0008BB780648BBF8D9A969A8E9A82ED8093DC
:1003B00075008AE580938300789408951F93CF9306
:1003C000DF9360918500662309F46FC080918600F9
:1003D000CCE0D0E0C81BD109C957DF4F81E0809342
:1003E0006400809184008D3209F051C01E818F819C
:1003F00081111FEF8881807669F58981811104C0A0
:100400001882198282E03BC0853029F48A8180936A
:100410008200959A33C0863099F482E0809364001C
:100420008B818130F9F0823009F1833039F58A818E
:10043000882301F1823011F586E2CEE5D0E01FC0BD
:10044000883019F481E088831AC08A30B9F41882A0
:1004500081E015C0CE01DAD08F3F89F483E080932C
:1004600064000FC082E1C8E4D0E009C082E1C6E3C5
:10047000D0E005C084E0CAE5D0E001C080E081178B
:1004800008F0812FD0936200C093610005C06350D3
:1004900011F0CE0150D180E08093630083EC809313
:1004A000770010927600109285008091760081117D
:1004B00051C020916400222309F44CC09091770030
:1004C00088E8892780937700C0916300C93018F4C9
:1004D000CC23A1F101C0C8E0233031F46C2F88E7B0
:1004E00090E010D1C82F25C08091610090916200EA
:1004F000213089F448E750E0FC0131969F012150FA
:100500003109D9012C91DA012D93AD012E2F281B31
:100510002C1798F30AC0A8E7B0E0FC0124913196AB
:100520002D932E2F281B2C17C8F3F0936200E09315
:100530006100809163008C1B809363006C2F88E7BF
:1005400090E0AFDD83E08C0F80937600C83010F42C
:10055000109264008AE0839907C08150E1F71092FD
:10056000820010929D009598DF91CF911F91089580
:10057000FB01DC01442321F141508D9128E030E062
:1005800050E890E0682F652309F0C59A60917400E7
:10059000062E00C000000A94E1F7C79A609174002B
:1005A000062E00C000000A94E1F7990FB6999F5FEC
:1005B000C598C79856952150310921F79193DACF04
:1005C000089580917000909171009C012F5F3F4FC2
:1005D000309371002093700020916D0027FF02C0BE
:1005E000880F991F80FD2860209369009C01232FAC
:1005F0003327269520936A009695879580936B0004
:1006000044E065E670E089E690E0B2CFFC019181BC
:10061000992309F475C0913019F486B3808343C0DF
:100620008281923029F1482F477021E030E001C0EB
:10063000220F4A95EAF7933021F488B320952823B6
:1006400004C0943021F488B3282B28BB57C09D30B8
:1006500011F487BB15C0953069F4809374008481D0
:10066000882311F081E101C081E0949891EB97BB60
:1006700088BB44C0963021F417BA18BA949A3EC089
:1006800088B38823D9F1973039F444E0BF01CF0112
:1006900002966EDF84E008959E3039F441E0BF0198
:1006A000CF01029665DF81E00895983039F48281A8
:1006B0008093730083818093720020C024813581F0
:1006C0003093710020937000993011F480E203C0E0
:1006D0009B3029F480EA80936D008FEF089522818A
:1006E000338130936F0020936E009A3011F480E4D0
:1006F00003C09C3019F480EC80936D0080E0089575
:1007000088E00895EF92FF921F93CF93DF93162F07
:10071000EC017C01E60EF11CCE15DF0529F051DF5E
:10072000809168008993F8CF812FDF91CF911F913D
:10073000FF90EF900895DF92EF92FF920F931F9337
:10074000CF93DF93EC017C01E60EF11C30E6D32E53
:10075000CE15DF0589F1899180936C0032DF80919D
:1007600069008D258093690000E010E080916E00A3
:1007700090916F000817190758F744E065E670E09C
:1007800089E690E0F5DE8091680090916C00891315
:1007900008C090917300891721F09091720089131D
:1007A000D7CF8091740090E025E0880F991F2A959B
:1007B000E1F7080F191FDACFDF91CF911F910F9149
:1007C000FF90EF90DF900895949A8C9AE6DDF6DD25
:0607D000FECFF894FFCFFC
:00000001FF
